{
  "_format": "hh-sol-artifact-1",
  "contractName": "WavePortal",
  "sourceName": "contracts/WavePortal.sol",
  "abi": [
    {
      "inputs": [],
      "stateMutability": "payable",
      "type": "constructor"
    },
    {
      "anonymous": false,
      "inputs": [
        {
          "indexed": true,
          "internalType": "address",
          "name": "from",
          "type": "address"
        },
        {
          "indexed": false,
          "internalType": "uint256",
          "name": "timestamp",
          "type": "uint256"
        },
        {
          "indexed": false,
          "internalType": "string",
          "name": "message",
          "type": "string"
        }
      ],
      "name": "NewWave",
      "type": "event"
    },
    {
      "inputs": [],
      "name": "getAllWaves",
      "outputs": [
        {
          "components": [
            {
              "internalType": "address",
              "name": "waver",
              "type": "address"
            },
            {
              "internalType": "uint256",
              "name": "timestamp",
              "type": "uint256"
            },
            {
              "internalType": "string",
              "name": "message",
              "type": "string"
            }
          ],
          "internalType": "struct WavePortal.Wave[]",
          "name": "",
          "type": "tuple[]"
        }
      ],
      "stateMutability": "view",
      "type": "function"
    },
    {
      "inputs": [],
      "name": "getTotalWaves",
      "outputs": [
        {
          "internalType": "uint256",
          "name": "",
          "type": "uint256"
        }
      ],
      "stateMutability": "view",
      "type": "function"
    },
    {
      "inputs": [
        {
          "internalType": "string",
          "name": "_message",
          "type": "string"
        }
      ],
      "name": "wave",
      "outputs": [],
      "stateMutability": "nonpayable",
      "type": "function"
    }
  ],
  "bytecode": "0x60806040526200004f6040518060400160405280601581526020017f4d79204e657720536d61727420436f6e747261637400000000000000000000008152506200007760201b620006331760201c565b606444426200005f9190620001c4565b6200006b919062000261565b60018190555062000308565b62000117816040516024016200008e919062000184565b6040516020818303038152906040527f41304fac000000000000000000000000000000000000000000000000000000007bffffffffffffffffffffffffffffffffffffffffffffffffffffffff19166020820180517bffffffffffffffffffffffffffffffffffffffffffffffffffffffff83818316178352505050506200011a60201b60201c565b50565b60008151905060006a636f6e736f6c652e6c6f679050602083016000808483855afa5050505050565b60006200015082620001a8565b6200015c8185620001b3565b93506200016e8185602086016200022b565b6200017981620002f7565b840191505092915050565b60006020820190508181036000830152620001a0818462000143565b905092915050565b600081519050919050565b600082825260208201905092915050565b6000620001d18262000221565b9150620001de8362000221565b9250827fffffffffffffffffffffffffffffffffffffffffffffffffffffffffffffffff0382111562000216576200021562000299565b5b828201905092915050565b6000819050919050565b60005b838110156200024b5780820151818401526020810190506200022e565b838111156200025b576000848401525b50505050565b60006200026e8262000221565b91506200027b8362000221565b9250826200028e576200028d620002c8565b5b828206905092915050565b7f4e487b7100000000000000000000000000000000000000000000000000000000600052601160045260246000fd5b7f4e487b7100000000000000000000000000000000000000000000000000000000600052601260045260246000fd5b6000601f19601f8301169050919050565b6111c380620003186000396000f3fe608060405234801561001057600080fd5b50600436106100415760003560e01c8063449d46c0146100465780639a2cdc0814610062578063bd43a90814610080575b600080fd5b610060600480360381019061005b91906109d7565b61009e565b005b61006a610497565b6040516100779190610e23565b60405180910390f35b6100886104e2565b6040516100959190610cda565b60405180910390f35b42600f600360003373ffffffffffffffffffffffffffffffffffffffff1673ffffffffffffffffffffffffffffffffffffffff168152602001908152602001600020546100eb9190610f40565b1061012b576040517f08c379a000000000000000000000000000000000000000000000000000000000815260040161012290610dc3565b60405180910390fd5b42600360003373ffffffffffffffffffffffffffffffffffffffff1673ffffffffffffffffffffffffffffffffffffffff1681526020019081526020016000208190555060008081548092919061018190611046565b91905055506101c66040518060400160405280601681526020017f257320776176656420772f206d6573736167652025730000000000000000000081525033836106cc565b600260405180606001604052803373ffffffffffffffffffffffffffffffffffffffff16815260200142815260200183815250908060018154018082558091505060019003906000526020600020906003020160009091909190915060008201518160000160006101000a81548173ffffffffffffffffffffffffffffffffffffffff021916908373ffffffffffffffffffffffffffffffffffffffff16021790555060208201518160010155604082015181600201908051906020019061028f9291906108cc565b505050606460015444426102a39190610f40565b6102ad9190610f40565b6102b7919061108f565b6001819055506102fe6040518060400160405280601481526020017f52616e646f6d652067656e65726174656420256400000000000000000000000081525060015461076b565b603260015411610444576103476040518060400160405280600781526020017f257320776f6e210000000000000000000000000000000000000000000000000081525033610807565b6000655af3107a4000905047811115610395576040517f08c379a000000000000000000000000000000000000000000000000000000000815260040161038c90610e03565b60405180910390fd5b60003373ffffffffffffffffffffffffffffffffffffffff16826040516103bb90610cc5565b60006040518083038185875af1925050503d80600081146103f8576040519150601f19603f3d011682016040523d82523d6000602084013e6103fd565b606091505b5050905080610441576040517f08c379a000000000000000000000000000000000000000000000000000000000815260040161043890610de3565b60405180910390fd5b50505b3373ffffffffffffffffffffffffffffffffffffffff167f5f7e16dc676677766a70e9c5628aa6c54ddb8b6e5188e2ae1e1f17f1ffbea716428360405161048c929190610e3e565b60405180910390a250565b60006104da6040518060400160405280600f81526020017f546f74616c2057617665733a202564000000000000000000000000000000000081525060005461076b565b600054905090565b60606002805480602002602001604051908101604052809291908181526020016000905b8282101561062a57838290600052602060002090600302016040518060600160405290816000820160009054906101000a900473ffffffffffffffffffffffffffffffffffffffff1673ffffffffffffffffffffffffffffffffffffffff1673ffffffffffffffffffffffffffffffffffffffff1681526020016001820154815260200160028201805461059990611014565b80601f01602080910402602001604051908101604052809291908181526020018280546105c590611014565b80156106125780601f106105e757610100808354040283529160200191610612565b820191906000526020600020905b8154815290600101906020018083116105f557829003601f168201915b50505050508152505081526020019060010190610506565b50505050905090565b6106c9816040516024016106479190610cfc565b6040516020818303038152906040527f41304fac000000000000000000000000000000000000000000000000000000007bffffffffffffffffffffffffffffffffffffffffffffffffffffffff19166020820180517bffffffffffffffffffffffffffffffffffffffffffffffffffffffff83818316178352505050506108a3565b50565b6107668383836040516024016106e493929190610d4e565b6040516020818303038152906040527fe0e9ad4f000000000000000000000000000000000000000000000000000000007bffffffffffffffffffffffffffffffffffffffffffffffffffffffff19166020820180517bffffffffffffffffffffffffffffffffffffffffffffffffffffffff83818316178352505050506108a3565b505050565b6108038282604051602401610781929190610d93565b6040516020818303038152906040527f9710a9d0000000000000000000000000000000000000000000000000000000007bffffffffffffffffffffffffffffffffffffffffffffffffffffffff19166020820180517bffffffffffffffffffffffffffffffffffffffffffffffffffffffff83818316178352505050506108a3565b5050565b61089f828260405160240161081d929190610d1e565b6040516020818303038152906040527f319af333000000000000000000000000000000000000000000000000000000007bffffffffffffffffffffffffffffffffffffffffffffffffffffffff19166020820180517bffffffffffffffffffffffffffffffffffffffffffffffffffffffff83818316178352505050506108a3565b5050565b60008151905060006a636f6e736f6c652e6c6f679050602083016000808483855afa5050505050565b8280546108d890611014565b90600052602060002090601f0160209004810192826108fa5760008555610941565b82601f1061091357805160ff1916838001178555610941565b82800160010185558215610941579182015b82811115610940578251825591602001919060010190610925565b5b50905061094e9190610952565b5090565b5b8082111561096b576000816000905550600101610953565b5090565b600061098261097d84610e9f565b610e6e565b90508281526020810184848401111561099a57600080fd5b6109a5848285610fd2565b509392505050565b600082601f8301126109be57600080fd5b81356109ce84826020860161096f565b91505092915050565b6000602082840312156109e957600080fd5b600082013567ffffffffffffffff811115610a0357600080fd5b610a0f848285016109ad565b91505092915050565b6000610a248383610c57565b905092915050565b610a3581610f96565b82525050565b610a4481610f96565b82525050565b6000610a5582610edf565b610a5f8185610f02565b935083602082028501610a7185610ecf565b8060005b85811015610aad5784840389528151610a8e8582610a18565b9450610a9983610ef5565b925060208a01995050600181019050610a75565b50829750879550505050505092915050565b6000610aca82610eea565b610ad48185610f1e565b9350610ae4818560208601610fe1565b610aed8161117c565b840191505092915050565b6000610b0382610eea565b610b0d8185610f2f565b9350610b1d818560208601610fe1565b610b268161117c565b840191505092915050565b6000610b3e601683610f2f565b91507f506c656173652057616974203135207365636f6e6473000000000000000000006000830152602082019050919050565b6000610b7e602683610f2f565b91507f4661696c656420746f207769746864726177206d6f6e65792066726f6d20636f60008301527f6e747261637400000000000000000000000000000000000000000000000000006020830152604082019050919050565b6000610be4600083610f13565b9150600082019050919050565b6000610bfe603383610f2f565b91507f547279696e6720746f207769746864726177206d6f7265206d6f6e657920746860008301527f61742074686520636f6e747261637420686173000000000000000000000000006020830152604082019050919050565b6000606083016000830151610c6f6000860182610a2c565b506020830151610c826020860182610ca7565b5060408301518482036040860152610c9a8282610abf565b9150508091505092915050565b610cb081610fc8565b82525050565b610cbf81610fc8565b82525050565b6000610cd082610bd7565b9150819050919050565b60006020820190508181036000830152610cf48184610a4a565b905092915050565b60006020820190508181036000830152610d168184610af8565b905092915050565b60006040820190508181036000830152610d388185610af8565b9050610d476020830184610a3b565b9392505050565b60006060820190508181036000830152610d688186610af8565b9050610d776020830185610a3b565b8181036040830152610d898184610af8565b9050949350505050565b60006040820190508181036000830152610dad8185610af8565b9050610dbc6020830184610cb6565b9392505050565b60006020820190508181036000830152610ddc81610b31565b9050919050565b60006020820190508181036000830152610dfc81610b71565b9050919050565b60006020820190508181036000830152610e1c81610bf1565b9050919050565b6000602082019050610e386000830184610cb6565b92915050565b6000604082019050610e536000830185610cb6565b8181036020830152610e658184610af8565b90509392505050565b6000604051905081810181811067ffffffffffffffff82111715610e9557610e9461114d565b5b8060405250919050565b600067ffffffffffffffff821115610eba57610eb961114d565b5b601f19601f8301169050602081019050919050565b6000819050602082019050919050565b600081519050919050565b600081519050919050565b6000602082019050919050565b600082825260208201905092915050565b600081905092915050565b600082825260208201905092915050565b600082825260208201905092915050565b6000610f4b82610fc8565b9150610f5683610fc8565b9250827fffffffffffffffffffffffffffffffffffffffffffffffffffffffffffffffff03821115610f8b57610f8a6110c0565b5b828201905092915050565b6000610fa182610fa8565b9050919050565b600073ffffffffffffffffffffffffffffffffffffffff82169050919050565b6000819050919050565b82818337600083830152505050565b60005b83811015610fff578082015181840152602081019050610fe4565b8381111561100e576000848401525b50505050565b6000600282049050600182168061102c57607f821691505b602082108114156110405761103f61111e565b5b50919050565b600061105182610fc8565b91507fffffffffffffffffffffffffffffffffffffffffffffffffffffffffffffffff821415611084576110836110c0565b5b600182019050919050565b600061109a82610fc8565b91506110a583610fc8565b9250826110b5576110b46110ef565b5b828206905092915050565b7f4e487b7100000000000000000000000000000000000000000000000000000000600052601160045260246000fd5b7f4e487b7100000000000000000000000000000000000000000000000000000000600052601260045260246000fd5b7f4e487b7100000000000000000000000000000000000000000000000000000000600052602260045260246000fd5b7f4e487b7100000000000000000000000000000000000000000000000000000000600052604160045260246000fd5b6000601f19601f830116905091905056fea2646970667358221220e26db0a4293756bccfde1f76f932800905c36a86c7c7906812f7ed24be992a7964736f6c63430008000033",
  "linkReferences": {},
  "deployedLinkReferences": {}
}